:040000000BEF00F012
:100008002182FACF06F0FBCF07F00DED00F051EF9B
:1000180001F00600E9CF08F0EACF09F0E1CF0AF0D5
:10002800E2CF0BF0D9CF0CF0DACF0DF0F3CF0EF012
:10003800F4CF0FF0F6CF10F0F7CF11F0F8CF12F0A1
:10004800F5CF13F0F2BAF2A41ED0ADEC00F0A00E7A
:10005800026E000E016E66EC01F0F294202A640E26
:100068002018D8A410D082AE02D0010E01D0000E04
:10007800FF0A056E05320532825005187F0B0518F8
:10008800826E000E206E13C0F5FF12C0F8FF11C07B
:10009800F7FF10C0F6FF0FC0F4FF0EC0F3FF0DC04E
:1000A800DAFF0CC0D9FF0BC0E2FF0AC0E1FF09C0AC
:1000B800EAFF08C0E9FF07C0FBFF06C0FAFF21926C
:1000C8001100000E1F6EECEC00F01F50D8B4FDD7E5
:1000D8001FA00CD082A002D0010E01D0000EFF0A92
:1000E8001B6E82501B18FE0B1B18826E1FA20DD0B0
:1000F80082A202D0010E01D0000EFF0A1B6E1B4621
:1001080082501B18FD0B1B18826E1FA40ED082A4F0
:1001180002D0010E01D0000EFF0A1B6E1B461B46C3
:1001280082501B18FB0B1B18826E1FA60FD082A6CD
:1001380002D0010E01D0000EFF0A1B6E1B461B46A3
:100148001B4682501B18F70B1B18826E000E1F6E81
:10015800BCD730D08150D8B41200010E1D6E000EED
:100168001C6E81CF1EF0120081501E18D8A407D033
:100178001C2A0A0E1C641200020E1D6E1200000ECC
:100188001D6E12008150D8A41200030E1D6E1200BD
:100198001EC01FF0000E1D6E000E1C6E000E1E6E9F
:1001A8001200000E1D6E000E1C6E000E1E6E000E5C
:1001B8001F6E12001D50000AD8B4CCD7010AD8B45B
:1001C800D3D7030AD8B4DED7010AD8B4E1D7E9D720
:1001D8000F0EC16E9368000E946E000E8B6E010EAA
:1001E80027EC01F08B68010E27EC01F0000E8B6EF6
:1001F800000E1A6E000E196EE80E195C030E1A58DE
:10020800D8B00DD081CF8BFF400E186ED40EE82EDB
:10021800FED7182EFCD700D0194A1A2AEDD78B68BA
:10022800010E27EC01F0000E8B6E010E27EC01F099
:10023800900E41EC01F0A00E156E000E146E5DECF0
:1002480001F0F28E1200156E000E166E11D0000E1F
:10025800176E180E176401D00AD0000E146E540ED3
:10026800E82EFED7142EFCD700D0172AF2D7162A6C
:100278001550165CD8B01200EAD7146E14507F0BD4
:10028800D56E000ED76E000ED66EF29414AE02D064
:10029800F28A01D0F29AD58E1200206A1F6A1E6A6D
:1002A8001D6A1C6A21902192000EF86E000165EF0C
:1002B80000F014C016F015C017F017C0D7FF16C00D
:1002C800D6FF120001C003F002C004F004C0D7FF3B
:0602D80003C0D6FF120076
:020000040020DA
:08000000FFFFFFFFFFFFFFFF00
:020000040030CA
:0E000000FF021F1EFF8181FF0FC00FE00F40A7
:00000001FF
