:040000000BEF00F012
:100008002082FACF06F0FBCF07F00DED00F017EFD6
:1000180001F00600E9CF08F0EACF09F0E1CF0AF0D5
:10002800E2CF0BF0D9CF0CF0DACF0DF0F3CF0EF012
:10003800F4CF0FF0F6CF10F0F7CF11F0F8CF12F0A1
:10004800F5CF13F0F2BAF2A41ED065EC00F0A00EC2
:10005800026E000E016E2CEC01F0F2941F2A640E61
:100068001F18D8A410D082AE02D0010E01D0000E05
:10007800FF0A056E05320532825005187F0B0518F8
:10008800826E000E1F6E13C0F5FF12C0F8FF11C07C
:10009800F7FF10C0F6FF0FC0F4FF0EC0F3FF0DC04E
:1000A800DAFF0CC0D9FF0BC0E2FF0AC0E1FF09C0AC
:1000B800EAFF08C0E9FF07C0FBFF06C0FAFF20926D
:1000C800110030D08150D8B41200010E1C6E000E01
:1000D8001B6E81CF1DF0120081501D18D8A407D0C7
:1000E8001B2A0A0E1B641200020E1C6E1200000E60
:1000F8001C6E12008150D8A41200030E1C6E120050
:100108001DC01EF0000E1C6E000E1B6E000E1D6E34
:100118001200000E1C6E000E1B6E000E1D6E000EEF
:100128001E6E12001C50000AD8B4CCD7010AD8B4ED
:10013800D3D7030AD8B4DED7010AD8B4E1D7E9D7B0
:100148000F0EC16E9368000E946E000E8B6E010E3A
:10015800DFEC00F08B68010EDFEC00F0000E8B6E18
:10016800000E1A6E000E196EE80E195C030E1A586E
:10017800D8B00DD081CF8BFF400E186ED40EE82E6C
:10018800FED7182EFCD700D0194A1A2AEDD78B684B
:10019800010EDFEC00F0000E8B6E010EDFEC00F0BC
:1001A800900EF9EC00F0A00E156E000E146E23EC04
:1001B80001F0F28E1200156E000E166E11D0000EB0
:1001C800176E180E176401D00AD0000E146E540E64
:1001D800E82EFED7142EFCD700D0172AF2D7162AFD
:1001E8001550165CD8B01200EAD7146E14507F0B65
:1001F800D56E000ED76E000ED66EF29414AE02D0F5
:10020800F28A01D0F29AD58E1200000E1E6EA4EC6E
:1002180000F01E50D8B4FDD71EB082801EB2829066
:10022800000E1E6EF6D71F6A1E6A1D6A1C6A1B6ABC
:1002380020902092000EF86E000109EF01F014C022
:1002480016F015C017F017C0D7FF16C0D6FF12005A
:1002580001C003F002C004F004C0D7FF03C0D6FFFA
:02026800120082
:020000040020DA
:08000000FFFFFFFFFFFFFFFF00
:020000040030CA
:0E000000FF021F1EFF8181FF0FC00FE00F40A7
:00000001FF
